:100000000C9494000C94BC000C94BC000C94BC00A8
:100010000C94BC000C94BC000C94BC000C94BC0070
:100020000C94BC000C94BC000C94BC000C94BC0060
:100030000C94BC000C94BC000C94BC000C94BC0050
:100040000C947A100C94BC000C94EA100C94C4101C
:100050000C94BC000C94BC000C94BC000C94BC0030
:100060000C94BC000C94BC005D0032313A34323A3E
:100070003533002C20004A616E203132203230327C
:1000800034002C2000433A5C55736572735C6173D5
:100090007461635C446F63756D656E74735C41720B
:1000A0006475696E6F5C6D616E616765725C6D61D0
:1000B0006E616765722E696E6F0053657276657248
:1000C0003120696E69742E2E2E205B000000000026
:1000D00023002600290000000008000201000003A0
:1000E00004070000000000000000000000002500E0
:1000F00028002B0000000000240027002A00040430
:1001000004040404040402020202020203030303BF
:10011000030301020408102040800102040810209B
:100120000102040810201C1111241FBECFEFD8E0DB
:10013000DEBFCDBF11E0A0E0B1E0EAEEFFE202C019
:1001400005900D92AC3AB107D9F724E0ACEAB1E0E2
:1001500001C01D92AA33B207E1F710E0C4E9D0E074
:1001600004C02197FE010E94D217C339D107C9F7F5
:100170000E94BB110C94F3170C9400008CBD9DBD24
:10018000089520E3FC0120833296862F82958F709C
:100190006F706A3030F4605D6293682F8111F5CF23
:1001A0000895695CF9CF833081F028F4813099F0AB
:1001B0008230A9F008958730A9F08830C9F08430E2
:1001C000B1F4809180008F7D03C0809180008F7793
:1001D00080938000089584B58F7784BD089584B599
:1001E0008F7DFBCF8091B0008F778093B000089512
:1001F0008091B0008F7DF9CFCF93DF9390E0FC0129
:10020000EE5EFE4F249182509F4FFC018491882323
:10021000D1F090E0880F991FFC01EC50FF4FA591A1
:10022000B491FC01E651FF4FC591D49161110EC00C
:100230009FB7F8948C91E22FE0958E238C932881C0
:10024000E223E8839FBFDF91CF9108958FB7F894A1
:10025000EC91E22BEC938FBFF6CF3FB7F8948091EF
:100260001F0390912003A0912103B091220326B592
:10027000A89B05C02F3F19F00196A11DB11D3FBFDE
:10028000BA2FA92F982F8827BC01CD01620F711DAD
:10029000811D911D42E0660F771F881F991F4A95A7
:1002A000D1F708958F929F92AF92BF92CF92DF9233
:1002B000EF92FF924B015C010E942D016B017C01CA
:1002C0000E942D016C197D098E099F09683E7340BB
:1002D00081059105A8F321E0821A9108A108B108CF
:1002E00088EEC80E83E0D81EE11CF11C8114910435
:1002F000A104B10429F7FF90EF90DF90CF90BF9059
:10030000AF909F908F9008952FB7F89460911B0342
:1003100070911C0380911D0390911E032FBF0895BF
:10032000AF92BF92CF92DF92EF92FF920F931F9303
:10033000CF93DF936C017B018B01040F151FEB0141
:100340005E01AE18BF08C017D10759F06991D601F8
:10035000ED91FC910190F081E02DC6010995892B6A
:1003600079F7C501DF91CF911F910F91FF90EF9029
:10037000DF90CF90BF90AF900895FC01538D448DD6
:10038000252F30E0842F90E0821B930B541710F040
:10039000CF96089501970895FC01918D828D98174D
:1003A00061F0A28DAE0FBF2FB11D5D968C91928D25
:1003B0009F5F9F73928F90E008958FEF9FEF089556
:1003C000FC01918D828D981731F0828DE80FF11D1F
:1003D000858D90E008958FEF9FEF0895FC01918D3A
:1003E000228D892F90E0805C9F4F821B91098F7333
:1003F0009927089580E493E00E94EE0121E0892B83
:1004000009F420E0822F089580E090E0892B29F004
:100410000E94FA0181110C9400000895FC01A48D42
:10042000A80FB92FB11DA35ABF4F2C91848D90E016
:1004300001968F739927848FA689B7892C93A089F9
:10044000B1898C91837080648C93938D848D981383
:1004500006C00288F389E02D80818F7D8083089516
:10046000EF92FF920F931F93CF93DF93EC0181E004
:10047000888F9B8D8C8D98131AC0E889F9898081AB
:1004800085FF15C09FB7F894EE89FF896083E889DE
:10049000F98980818370806480839FBF81E090E0D0
:1004A000DF91CF911F910F91FF90EF900895F62E5D
:1004B0000B8D10E00F5F1F4F0F731127E02E8C8DF7
:1004C0008E110CC00FB607FCFACFE889F98980813C
:1004D00085FFF5CFCE010E940E02F1CFEB8DEC0F20
:1004E000FD2FF11DE35AFF4FF0829FB7F8940B8F59
:1004F000EA89FB8980818062CFCF0F931F93CF93CE
:10050000DF938C01D0E0C0E0F801EC0FFD1F649197
:10051000662341F080E493E00E943002892B11F0C1
:100520002196F2CFCE01DF91CF911F910F910895C7
:10053000CF93DF93EC01888D8823B9F0AA89BB891A
:10054000E889F9898C9185FD03C0808186FD0DC005
:100550000FB607FCF7CF8C9185FFF2CF808185FF26
:10056000EDCFCE010E940E02E9CFDF91CF91089529
:10057000FC0120812EBD9B012150310941F05181A8
:100580000DB407FEFDCF4EB55EBD4193F5CF615072
:100590007109860F971F0DB407FEFDCF2EB5FC0124
:1005A00020830895E091AD01F091AE01808190919A
:1005B000AC01892B80830895E091AD01F091AE01EB
:1005C00090818091AC0180958923808308958EBDB0
:1005D00000000DB407FEFDCF8EB50895AF92BF9217
:1005E000CF92DF92EF92FF920F931F93CF93DF93FF
:1005F000CDB7DEB728970FB6F894DEBF0FBECDBFDC
:100600008C017B016A0180913F038333E1F458013F
:10061000A40EB51EA016B10609F46FC00E94DC023C
:1006200080EF0E94E702812F0E94E702802F0E9444
:10063000E7020F5F1F4FF70181917F010E94E702E0
:100640000E94D202E7CF5B01A40EB51E8433C1F431
:100650000E94DC0219830A838D2D80688B83CC82F3
:1006600064E070E0CE0101960E94B802AE14BF04AF
:1006700009F441C0F70181917F010E94E702F6CFA2
:100680000E94DC020F3F110509F028F419820A8349
:1006900084E08B830CC017FD17C019820A8333E0F6
:1006A000169507953A95E1F7007E0C600B8386E07E
:1006B000C816D104A0F5F701DE011496EA15FB0572
:1006C00099F081918D93FACFC80126E09695879590
:1006D0002A95E1F7807E19830A830115104C10F4E6
:1006E0008461D7CF8C61D5CFB6016D5F7F4FCE01CE
:1006F00001960E94B8020E94D202C60128960FB647
:10070000F894DEBF0FBECDBFDF91CF911F910F9147
:10071000FF90EF90DF90CF90BF90AF90089563E08F
:1007200070E0CE0101960E94B802F70181917F012D
:100730000E94E702AE14BF04C1F7DDCFCF93DF9371
:100740001F92CDB7DEB7898341E050E0BE016F5FF5
:100750007F4F90E080E00E94EE020F90DF91CF91FA
:10076000089590E020913F03233339F40C96982F9D
:10077000990F990F990F80E008954896F8CFDA0104
:10078000E091B001F0E0FE2FEE27E60FF71F90E0BA
:10079000982F8827A901BD018E0F9F1F0C94EE0290
:1007A000CF93DF9300D0CDB7DEB779836A8322E0A1
:1007B00030E0AE014F5F5F4F64E070E00E94BF0326
:1007C0000F900F90DF91CF910895CF93DF931F92F9
:1007D000CDB7DEB72091B00130E0322F2227260FAF
:1007E000371F90E0982F8827498341E050E0BE01F1
:1007F0006F5F7F4F820F931F0E94EE020F90DF9179
:10080000CF9108950895CF93DF931F92CDB7DEB7B0
:100810006983DC01ED91FC910280F381E02D41E0E0
:1008200050E0BE016F5F7F4F09950F90DF91CF9130
:100830000895FC01818D928D08950895DF92EF92C5
:10084000FF920F931F93CF93DF9300D0CDB7DEB706
:10085000FB01DC0157961C921E92569722812111B2
:1008600009C02381211106C02481211103C02581E3
:10087000222369F14115510551F17A018F01FC01E3
:10088000D08C80E591E00E94BE00A8014E5F5F4FD2
:1008900024E030E06CE070E08D2D0E94BF03F9820F
:1008A000EA8222E030E0AE014F5F5F4F60E170E02E
:1008B0008D2D0E94BF0381E090E00F900F90DF919B
:1008C000CF911F910F91FF90EF90DF90089580E0FE
:1008D000F3CFFC01848595850895FC018489958971
:1008E000089522E531E0FC0131832083FB0140893A
:1008F000518962897389FC014283538364837583C0
:100900000895DC01ED91FC91048CF58DE02D0994A6
:1009100090E080E00895AF92BF92CF92DF92EF9285
:10092000FF920F931F93CF93DF9300D000D0CDB7EA
:10093000DEB78C016B017A0180913F038333E9F4C8
:100940005B016801C40ED51EC016D106A9F10E9434
:10095000DC028FE00E94E702812F0E94E702802FD5
:100960000E94E7020F5F1F4F80E00E94E702F5013F
:1009700081935F010E94D202E7CF843369F50E9420
:10098000DC0219830A838F2D8F778B83EC8264E0DE
:1009900070E0CE0101960E94B802A70170E060E00D
:1009A000C6010E94E517E114F10421F0B701C60168
:1009B0000E94B8020E94D202C7010F900F900F90C0
:1009C0000F90DF91CF911F910F91FF90EF90DF90EB
:1009D000CF90BF90AF9008950E94DC020F3F1105A9
:1009E00009F030F419820A831B8263E070E0D1CFF2
:1009F00017FD0BC019820A8333E0169507953A95C7
:100A0000E1F7007E08600B83F0CFC80126E09695E1
:100A100087952A95E1F7807E19830A830115104C8A
:100A200018F480618B83E1CF8861FCCFCF93DF9393
:100A30001F92CDB7DEB72091B00130E0322F2227D0
:100A4000260F371F90E0982F882741E050E0BE0125
:100A50006F5F7F4F820F931F0E948B0489810F90DD
:100A6000DF91CF910895CF93C82F462F61E070E0BA
:100A70000E94E50361E070E08C2F0E941605811151
:100A8000F9CFCF910895CF93C82F80E591E00E94D0
:100A9000BE0060E170E08C2FCF910C943305CF93B2
:100AA000DF93EC01888D843020F40E94430584E0BC
:100AB000888FDF91CF910895CF93FC01C08D80E5A1
:100AC00091E00E94BE0060E270E08C2F0E9433052E
:100AD00062E070E08C2F0E94160584FD16C062E073
:100AE00070E08C2F0E94160583FF0AC048E162E087
:100AF00070E08C2F0E94E50380E090E0CF91089594
:100B000080E591E00E94BE00E3CF40E162E070E04A
:100B10008C2F0E94E50381E0F0CFCF93DF931F92EB
:100B2000CDB7DEB741E050E0BE016F5F7F4F90E090
:100B300080E00E948B0489810F90DF91CF9108950E
:100B4000CF93DF93C4E1D0E00E948D05882361F04C
:100B500061E070E080E090E00E9452012197A1F7EF
:100B600080E0DF91CF91089581E0FBCF1F93CF9379
:100B7000DF931F92CDB7DEB7FC01108D143020F546
:100B8000818D928D892B01F180E591E00E94BE005C
:100B9000812F0E94B10327E0129FF0011124ED5D27
:100BA000FC4F22813381377041E050E0BE016F5F1E
:100BB0007F4F820F931F0E948B04898190E00F90DA
:100BC000DF91CF911F9108958FEF9FEFF8CFDA015A
:100BD000E091B001F0E0FE2FEE27E60FF71F90E066
:100BE000982F8827A901BD018E0F9F1F0C948B049D
:100BF0008F929F92AF92BF92CF92DF92EF92FF922D
:100C00001F93CF93DF93CDB7DEB72C970FB6F89431
:100C1000DEBF0FBECDBF20913F0314E0222339F188
:100C20006B017C0180E591E00E94BE005E0127E03F
:100C3000A20EB11C450110E063E070E0812F0E941C
:100C40001605F40181934F01882349F11F5F143089
:100C500099F710E0F50181915F018D31D9F088316C
:100C6000C9F08A518230B0F01F5F143099F7812F9C
:100C70002C960FB6F894DEBF0FBECDBFDF91CF919B
:100C80001F91FF90EF90DF90CF90BF90AF909F901B
:100C90008F90089560E170E0812F0E943305A12EAE
:100CA000B12C83EE93E00197F1F742E870E060E049
:100CB000812F0E94E5034FEF62E070E0812F0E94D8
:100CC000E503B601C114D10491F48091060190911D
:100CD000070101968115F0EC9F0708F464C090931A
:100CE0000701809306016091060170910701812F31
:100CF0000E94D00386E0ECE0F1E0DE011196019065
:100D00000D928A95E1F7F70183818F778C83848137
:100D10008D8385818E83A7014E5F5F4F24E030E095
:100D20006CE070E0812F0E94BF03DB86CC8622E05E
:100D300030E0AE01455F5F4F60E170E0812F0E94BF
:100D4000BF0326E030E0AE014F5F5F4F66E070E02A
:100D5000812F0E94BF0361E070E0812F0E94330564
:100D600027E02A9DC0012B9D900D11249C012D5D33
:100D70003C4F7901F9011182108222E030E0AE018E
:100D8000455F5F4F68E270E0812F0E94E7058B8529
:100D90009C85982789279827F70193838283168259
:100DA0001582148264CF80E090EC99CFCF92DF92CD
:100DB000EF92FF920F931F93CF93DF9300D000D059
:100DC00000D0CDB7DEB78C016B017A01FC01808DBC
:100DD000843010F40E94430582E591E09A83898370
:100DE000F60182819381A481B5818B839C83AD833D
:100DF000BE83B701CE0101960E94F805F801808FED
:100E00008430A0F4F586E486128E118E81E0269659
:100E10000FB6F894DEBF0FBECDBFDF91CF911F910B
:100E20000F91FF90EF90DF90CF90089580E0EFCF8B
:100E3000FF920F931F93CF93DF9300D0CDB7DEB710
:100E4000F82E22E030E0AE014F5F5F4F66E270E0C7
:100E50000E94E70509811A8110270127102722E047
:100E600030E0AE014F5F5F4F66E270E08F2D0E9471
:100E7000E70589819A8198278927982708171907F4
:100E800049F4C8010F900F90DF91CF911F910F91FE
:100E9000FF9008958C01E3CF4F925F927F928F92E3
:100EA0009F92AF92BF92CF92DF92EF92FF920F93F9
:100EB0001F93CF93DF9300D0CDB7DEB7782E6B01B1
:100EC0004A01A82EB12C27E0829FC0011124FC0109
:100ED000ED5DFC4F7F010081118180E591E00E9472
:100EE000BE000815190554F4872D0E941807F70154
:100EF00026818C01021B1109118300830115110544
:100F000029F563E070E0872D0E941605843159F0C1
:100F1000882349F001E010E08C3111F410E000E08A
:100F2000119501951109C8010F900F90DF91CF9194
:100F30001F910F91FF90EF90DF90CF90BF90AF90F7
:100F40009F908F907F905F904F90089580169106AC
:100F50000CF4840187E08A9DF0018B9DF00D112433
:100F6000ED5DFC4FE280F380C114D10451F1270103
:100F7000F7E05F22872D0E94B103840D951D20911B
:100F80003F03273309F453C09801240D351D213048
:100F9000384008F44CC020E038E049018418950836
:100FA000A401B6010E948B042601480C591C68015B
:100FB000C818D908872D0E94B103A601B2010E946A
:100FC0008B04E00EF11E87E08A9DF0018B9DF00DF1
:100FD0001124ED5DFC4FF382E28220813181201BE0
:100FE000310B318320838681800F912F911D8A3FA1
:100FF000910510F4232BF1F487E08A9DF0018B9D7D
:10100000F00D1124ED5DFC4F1682F982EA8222E098
:1010100030E0AE014F5F5F4F68E270E0872D0E94C5
:10102000BF0360E470E0872D0E9433057CCFA801E8
:10103000B601C5CF868377CFCF93DF93FC01218D97
:10104000328D2115310529F48FEF9FEFDF91CF917C
:101050000895EC01808D4217530708F0A9010E9402
:101060004C071816190684F7298D3A8D281B390B61
:101070003A8F298FEBCF0F931F93CF93DF931F925C
:10108000CDB7DEB7FC01218D328D232B41F48FEFDC
:101090009FEF0F90DF91CF911F910F9108958C01D9
:1010A00041E050E0BE016F5F7F4FFC01808D0E94E8
:1010B0004C07181619065CF7F801818D928D01977F
:1010C000928F818F898190E0E4CF3F924F925F921F
:1010D0006F927F928F929F92AF92BF92CF92DF9248
:1010E000EF92FF920F931F93CF93DF9300D0CDB772
:1010F000DEB75C014B01342E452EFC0166887788F3
:10110000508C80E591E00E94BE0022E030E0AE010C
:101110004F5F5F4F60E270E0852D0E94E705C98058
:10112000DA80DC24CD24DC2422E030E0AE014F5F05
:101130005F4F60E270E0852D0E94E70589819A810A
:10114000982789279827C816D90609F079C0E52C71
:10115000F12C67E0569EF0011124ED5DFC4FD58225
:10116000C482032D142DC016D10608F4860122E096
:1011700030E0AE014F5F5F4F64E270E0852D0E946A
:10118000E70589819A81982789279827680E791E13
:101190009301377040913F03433309F053C088E017
:1011A000E80EF11CFE2CEE24FF0CFF0CFF0CC90115
:1011B0008E0D9F1D473309F449C0A901400F511FEF
:1011C0004130584008F442C060E078E06B01C21A38
:1011D000D30AA601B4010E94EE02A8014C195D09D0
:1011E000B4016C0D7D1DC7010E94EE02600E711EE0
:1011F00079826A8222E030E0AE014F5F5F4F64E2A5
:1012000070E0852D0E94BF03F50186899789800FC4
:10121000911F978B868BC8010F900F90DF91CF9114
:101220001F910F91FF90EF90DF90CF90BF90AF9004
:101230009F908F907F906F905F904F903F90089518
:101240006C0172CFE0E1EE0EF11CACCFA801B4014D
:10125000CBCF8F929F92AF92BF92CF92DF92EF92BD
:10126000FF921F93CF93DF9300D000D000D0CDB773
:10127000DEB76C015B01FC01808D843010F40E94AC
:10128000430580913F03811115C094E0F601908FD2
:1012900026960FB6F894DEBF0FBECDBFDF91CF917B
:1012A0001F91FF90EF90DF90CF90BF90AF909F90F5
:1012B0008F90089580E591E00E94BE009E012F5F0F
:1012C0003F4F7901490110E063E070E0812F0E94F7
:1012D0001605F40181934F01882309F11F5F143033
:1012E00099F710E0F70181917F018D3199F08831F4
:1012F00089F08A51823070F01F5F143099F7F6013F
:10130000108F80E0143021F2B586A486128E118EE3
:1013100081E0BECF60E170E0812F0E943305E12EB5
:10132000F12C83EE93E00197F1F742E070E060E08A
:10133000812F0E94E5034FEF62E070E0812F0E9451
:10134000E503B501A114B10489F4809106019091DF
:10135000070101968115F0EC9F0798F19093070122
:10136000809306016091060170910701812F0E9410
:10137000D00361E070E0812F0E94330527E02E9DAD
:10138000C0012F9D900D11249C012D5D3C4F7901D2
:10139000F9011182108222E030E0AE014B5F5F4F15
:1013A00068E270E0812F0E94E7058D819E81982779
:1013B00089279827F70193838283168215821482E6
:1013C0009ECF80E090ECCACFDC0182E591E08D9366
:1013D0009D9384E0FB0101900D928A95E1F70895B9
:1013E000DF92EF92FF920F931F93CF93DF93CDB7CE
:1013F000DEB728970FB6F894DEBF0FBECDBF8C01C5
:10140000D80159964D915C915A974115510551F06B
:10141000ED91FC91048CF58DE02D70E060E0C80149
:101420000995EECFF801D08CF7E0DF9EC0011124C2
:101430009C012D5D3C4F7901D9018D919C91892BA7
:1014400059F148E050E0BE016F5F7F4FF801808D99
:101450000E944C071816190694F5D801509684E09E
:10146000FE01319601900D928A95E1F78D8190E011
:10147000982F88272E81820F911DF801958B848BE0
:101480008F81282F30E0322F22278885820F932FDB
:10149000911D928F818F13C080E591E00E94BE0064
:1014A0008D2D0E941807D70116962C911697821B36
:1014B00091098D939C93892B21F690E080E02896EA
:1014C0000FB6F894DEBF0FBECDBFDF91CF911F9155
:1014D0000F91FF90EF90DF9008956F927F928F921F
:1014E0009F92AF92BF92CF92DF92EF92FF920F93B3
:1014F0001F93CF93DF93CDB7DEB7EC970FB6F89479
:10150000DEBF0FBECDBF4C018B013A0182E591E0F9
:101510009A8389831C861B8648EE53E060E070E066
:101520004D875E876F87788B28E231E03A8729877D
:10153000988F8F8B198E1A8E1B8E1C8E24E029A3F8
:1015400099AB88AB1AAA1BAA1CAA1DAA8091FD03FD
:101550009091FE03A091FF03B09100048EA39FA37E
:10156000A8A7B9A78B839C83AD83BE8318861F82EF
:10157000F80120E090E080E06AE03191332309F443
:101580007AC040ED430F4A3008F064C0689FA00164
:10159000699F500D1124CA01C097830F911D37FD1B
:1015A0009A958F3F910549F340F34B815C816D81A2
:1015B0007E818091090490910A04A0910B04B0915E
:1015C0000C04481759076A077B0709F428C20E94D0
:1015D00084016F7077277C5FCE0109960E942909EC
:1015E000813009F01FC282E591E09DA38CA38B811D
:1015F0009C81AD81BE818EA39FA3A8A7B9A745E317
:1016000050E0BE016C5D7F4FCE0109960E941E0422
:10161000892B09F04EC010E000E0CE0109960E942F
:101620004F050130110559F1C801EC960FB6F89439
:10163000DEBF0FBECDBFDF91CF911F910F91FF9005
:10164000EF90DF90CF90BF90AF909F908F907F9062
:101650006F9008953E3209F0A8CF233009F4A5CF4A
:10166000A2E3B0E0AC0FBD1FA20FB11D8C932F5FA2
:1016700090E080E082CF233009F097CF8DABD4018A
:10168000ED91FC910488F589E02D82E591E09DA320
:101690008CA38AA99BA9ACA9BDA98EA39FA3A8A727
:1016A000B9A7A301BE016C5D7F4FC40109958C01F0
:1016B000BBCF0E94840178876F8342E050E0BE0177
:1016C000695F7F4FCE0109960E94650881E090E036
:1016D0009DA38CA342E050E0BE016C5D7F4FCE0124
:1016E00009960E94650880E091E09DA38CA342E0EA
:1016F00050E0BE016C5D7F4FCE0109960E946508E7
:101700001DA21CA242E050E0BE016C5D7F4FCE01E5
:1017100009960E94650842E050E0BE016C5D7F4F73
:10172000CE0109960E94650842E050E0BE016C5D62
:101730007F4FCE0109960E9465087801D8018C91EF
:10174000882311F18701F80181916F01882311F03D
:101750008E32C1F45801AE18BF081A141B0484F469
:10176000AEAA41E050E0BE016A5C7F4FCE0109960F
:101770000E946508A501B701CE0109960E9465087F
:101780007601DCCF8601DFCF1EAA41E050E0BE012A
:101790006A5C7F4FCE0109960E94650800E011E067
:1017A0001DA30CA342E050E0BE016C5D7F4FCE0153
:1017B00009960E9465081DA30CA342E050E0BE01FB
:1017C0006C5D7F4FCE0109960E946508CE01099697
:1017D0000E945C05892B09F41ECF83E0E82EF12CD2
:1017E000D7C04B815C816D817E81898D9A8DAB8D57
:1017F000BC8D481759076A077B0709F00AC18D8D10
:101800009E8DC59709F005C18AA19BA10DEF1FEF21
:101810000C970CF4B4C04CE050E0BE016C5D7F4FFF
:10182000CE0109960E941C088EA19FA198278927A6
:1018300098279BAF8AAF4F8158852CA13DA14217B5
:10184000530709F0E9C097FFE7C08F7092700BEF64
:101850001FEF892B09F093C0AAA4BBA4BA24AB2420
:10186000BA240AEF1FEFA114B10409F488C010E0F4
:1018700000E088A599A598278927982708171907B0
:1018800008F541E050E0BE016A5C7F4FCE01099649
:101890000E941C084EA9442339F050E070E060E03B
:1018A000CE0109960E941C088EA98111EACF44E05E
:1018B00050E070E060E0CE0109960E941C080F5FC6
:1018C0001F4FD7CFD12CC12C41E050E0BE01645C4A
:1018D0007F4FCE0109960E941C084CAD842F807C5E
:1018E00009F074C0442339F050E070E060E0CE01AC
:1018F00009960E941C088CAD8111E6CF42E050E0B1
:10190000BE01685C7F4FCE0109960E941C0842E030
:1019100050E0BE016A5C7F4FCE0109960E941C0810
:1019200044E050E070E060E0CE0109960E941C089F
:1019300042E050E0BE01665C7F4FCE0109960E94F6
:101940001C0888AD99AD4AAD5BAD8115914009F099
:1019500047C00EA91FA91027012710270130110524
:1019600009F03EC04115544009F04DC044E050E03C
:10197000BE016E5C7F4FCE0109960E941C08F1E00B
:10198000EF1AF10809F449CE0F3F100709F045CED0
:101990000E9484015B016C01CE0109960E94F0094E
:1019A000181619060CF41DCF0E9484016A197B09D0
:1019B0008C099D09693873418105910538F562E309
:1019C00070E080E090E00E945201E6CF41E050E0FC
:1019D00070E060E0CE0109960E941C081CAE8BCF1F
:1019E00054274527542770E060E0CE0109960E94F5
:1019F0001C08EFEFCE1ADE0AAC14BD0409F064CF68
:101A000006EF1FEFBCCF07EF1FEFB9CF0FEF1FEFB0
:101A1000B6CF0EEF1FEFB3CF0CEF1FEFB0CF0EEF2F
:101A20001FEF02CE10E000E0FFCDFB01019000208F
:101A3000E9F73197AF01461B570BDC01ED91FC91A3
:101A40000280F381E02D09948F929F92AF92BF9212
:101A5000EF92FF920F931F93CF93DF93CDB7DEB733
:101A6000A1970FB6F894DEBF0FBECDBF7C01FA017F
:101A7000CB0119A2223008F42AE08E010F5D1F4F1E
:101A8000822E912CB12CA12CBF01A50194010E94A2
:101A90009A17F901CA016A300CF5605DD8016E939E
:101AA0008D01232B242B252B79F790E080E01097D4
:101AB00021F0BD01C7010E94150DA1960FB6F89443
:101AC000DEBF0FBECDBFDF91CF911F910F91FF9071
:101AD000EF90BF90AF909F908F900895695CDECF9C
:101AE000CF93DF93BC0180E493E00E94150DEC01DD
:101AF00064E571E080E493E00E94150D8C0F9D1F5A
:101B0000DF91CF9108958F929F92AF92BF92CF9223
:101B1000DF92EF92FF920F931F93CF93DF937C019D
:101B2000EB016C0182E0C80ED11C4701E5E08E0E8E
:101B3000911C10E000E0F60141916F0150E070E06F
:101B400060E02AE0CE010E94240D5C01E881F98169
:101B50000190F081E02D6EE2CE0109958A0D9B1D6A
:101B6000080F191FC814D90431F7F701458150E057
:101B700070E060E02AE0CE010E94240D800F911FEA
:101B8000DF91CF911F910F91FF90EF90DF90CF9059
:101B9000BF90AF909F908F9008953F924F925F9229
:101BA0006F927F928F929F92AF92BF92CF92DF926D
:101BB000EF92FF920F931F93CF93DF93CDB7DEB7D2
:101BC000EA970FB6F894DEBF0FBECDBF7C012A01A5
:101BD0003B0169010E9484014B015C0187010D5B9F
:101BE0001F4FC8010E94F009181619069CF00E94A8
:101BF0008401681979098A099B09461657066806FF
:101C0000790608F466C162E370E080E090E00E942B
:101C10005201E7CF42E250E0BE016F5F7F4FC80143
:101C20000E941C0889818230D1F0312C832DEA96E4
:101C30000FB6F894DEBF0FBECDBFDF91CF911F91DD
:101C40000F91FF90EF90DF90CF90BF90AF909F905B
:101C50008F907F906F905F904F903F900895F80124
:101C6000848995898334910501F76D817E818F8107
:101C700098850E94CB174B015C01F601808291820E
:101C8000A282B38246E050E0B701685F7F4FCE0189
:101C90004D960E94D817892B41F6F70180819181DA
:101CA000A281B38188169906AA06BB0608F4BDCFA7
:101CB00084819581A681B78188159905AA05BB0500
:101CC00008F4B3CF89899A89AB89BC8986879787BD
:101CD000A08BB18B4EEC50E070E060E0C8010E9438
:101CE0001C08312CC701829698AB8FA7F701B696D6
:101CF000FAABE9AB08969CAB8BAB67019AE1C90ED6
:101D0000D11CBD96FEABEDABC701429698AF8FAB31
:101D1000FD97FAAFE9AF4701FEE18F0E911CF80184
:101D2000818D928D181619060CF080CFC8010E9483
:101D30003B088333910509F4B2C014F58130910555
:101D400009F464C044F4892B51F3C8010E943B0894
:101D5000AC01552775C08330910509F462C0069720
:101D6000A1F7C8010E943B08B82E44E050E0B4013E
:101D7000C8010E941C08EB2DE450FF0BAF0160C0AE
:101D80008A33910509F45FC084F585339105B1F17B
:101D9000C697D9F6C8010E943B085C01B601CE0186
:101DA00089960E94E4098BA59CA5ADA5BEA5892BAB
:101DB0008A2B8B2BB1F0EDA9FEA940805180628067
:101DC0007380B601CE0183960E94E4098DA19EA185
:101DD000AFA1B8A5A501481659066A067B0609F009
:101DE000B8CF44E050E0B60118C08B33910509F438
:101DF00040C08F3F910509F492CFA7CFC8010E9440
:101E00003B08C8010E943B08382E89CFC8010E94B8
:101E10003B0844E050E06FA978ADC8010E941C085F
:101E20007ECFC8010E943B08B82E44E050E069AD67
:101E30007AADC8010E941C088B2D8450990BAC010F
:101E400070E060E0EACFC8010E943B0844E050E047
:101E500069A97AA9C8010E941C08F70166A177A1A7
:101E600080A591A50E94CB1766A377A380A791A711
:101E700056CFC8010E943B0844E050E06BA97CA902
:101E8000C8010E941C08F70162A573A584A595A549
:101E90000E94CB1762A773A784A795A740CFC8015C
:101EA0000E943B0844E050E06FA578A9C8010E9459
:101EB0001C08F70162A173A184A195A10E94CB1710
:101EC00062A373A384A395A366A777A780AB91AB06
:101ED00026CF33243A94AACE7F928F929F92AF92CC
:101EE000BF92CF92DF92EF92FF920F931F93CF9307
:101EF000DF93CDB7DEB7A6970FB6F894DEBF0FBE5F
:101F0000CDBF8C01762E942E852E20E2A22ECE01FE
:101F100001967C01DC01EA2D1D92EA95E9F7680142
:101F2000F3E4CF0ED11C82E591E09AA389A38FEF51
:101F30008BA38CA38DA38EA343E450E0BE016F5D01
:101F40007F4FC6010E941E04019609F4BFC081E0C4
:101F500089838A8386E0B82EBB821C82D8011496BE
:101F60006D917D918D919C9117970E94CB176D83F8
:101F70007E838F83988789869A8680E890E09C8705
:101F80008B874CE150E0B701C6010E946508FE0155
:101F900037968AE1DF011D928A95E9F74801B8E09A
:101FA0008B0E911CF401D70101900D92BA94E1F7C8
:101FB00040E150E0B701C6010E946508F7011192A7
:101FC000AA94E9F796E0A92EB12C40E250E0B701BF
:101FD000C6010E946508F1E0AF1AB108B1F783E6C7
:101FE000898392E89A8393E59B838C8385E38D8331
:101FF00081E08E837F829DE3988797E099878A8727
:1020000086E0F401DE011B9601900D928A95E1F7BE
:102010008CE0898B8A8B67E571E0CE0143960E9444
:10202000EC17D8011B966C91CE0149960E94C10015
:10203000F8016485CE014B960E94C100D8011D961F
:102040006C91CE014D960E94C1004EE150E0B70167
:10205000C6010E946508B3E07B121EC082E389833B
:1020600084E08A83F80196859B8397859C83908979
:102070009D8391899E8396E39F838887828D89873C
:10208000838D8A87848D8B87858D8C874CE050E08B
:10209000B701C6010E94650887E3898386E08A83C9
:1020A00091E09B8393E09C838D838FE08E838AE312
:1020B0008F838BE388878FEF898749E050E0B701F2
:1020C000C6010E946508C6010E945C05A6960FB66F
:1020D000F894DEBF0FBECDBFDF91CF911F910F915E
:1020E000FF90EF90DF90CF90BF90AF909F908F9038
:1020F0007F9008951F920F920FB60F9211242F9385
:102100003F938F939F93AF93BF9380911B039091C5
:102110001C03A0911D03B0911E0330911A0323E00C
:10212000230F2D3758F50196A11DB11D20931A03D9
:1021300080931B0390931C03A0931D03B0931E0375
:1021400080911F0390912003A0912103B09122035D
:102150000196A11DB11D80931F0390932003A093AE
:102160002103B0932203BF91AF919F918F913F9133
:102170002F910F900FBE0F901F90189526E8230FF8
:102180000296A11DB11DD2CF1F920F920FB60F92D2
:1021900011242F933F934F935F936F937F938F936C
:1021A0009F93AF93BF93EF93FF9380E493E00E94DC
:1021B0000E02FF91EF91BF91AF919F918F917F910F
:1021C0006F915F914F913F912F910F900FBE0F90A4
:1021D0001F9018951F920F920FB60F9211242F93F4
:1021E0008F939F93EF93FF93E0915003F0915103EE
:1021F0008081E0915603F091570382FD1BC09081CE
:10220000809159038F5F8F7320915A03821741F099
:10221000E0915903F0E0E05CFC4F958F8093590307
:10222000FF91EF919F918F912F910F900FBE0F9083
:102230001F9018958081F4CFE0E4F3E013821282BE
:1022400048EE53E060E070E0448355836683778313
:1022500086E191E09183808385EC90E09587848787
:1022600084EC90E09787868780EC90E0918B808B60
:1022700081EC90E0938B828B82EC90E0958B848B49
:1022800086EC90E0978B868B118E128E138E148EB7
:10229000EDEDF3E082E591E0918380831282138279
:1022A00014821582E3EEF3E091838083128213821D
:1022B00014821582E9EEF3E0918380831282138207
:1022C00014821582EFEEF3E09183808312821382F1
:1022D00014821582E5EFF3E09183808312821382EA
:1022E00014821582E1E0F4E09183808312821382EC
:1022F00014821582EBEFF3E09183808312821382C4
:1023000014821582E7E0F4E09183808312821382C5
:1023100014821582EDE0F4E09183808312821382AF
:1023200014821582E4E3F4E09183808312821382A5
:1023300014821582EEE2F4E09183808329EA2283FD
:102340002EEF238321E6248327E62583E3E1F4E0CF
:1023500013821282448355836683778328E231E0B7
:102360003183208397878687108A118A128A138A7D
:1023700084E0808F0895CF93DF93CDB7DEB72A979F
:102380000FB6F894DEBF0FBECDBF789484B58260DF
:1023900084BD84B5816084BD85B5826085BD85B509
:1023A000816085BD80916E00816080936E00109287
:1023B0008100809181008260809381008091810002
:1023C0008160809381008091800081608093800093
:1023D0008091B10084608093B1008091B0008160F1
:1023E0008093B00080917A00846080937A0080911D
:1023F0007A00826080937A0080917A008160809375
:102400007A0080917A00806880937A001092C100EF
:1024100060E082E00E94FC00E0915003F0915103E3
:1024200082E08083E0914C03F0914D031082E091B3
:102430004E03F0914F0380E1808310925803E091A6
:102440005403F091550386E08083E0915203F091AC
:102450005303808180618083E0915203F0915303A4
:10246000808188608083E0915203F09153038081E2
:1024700080688083E0915203F091530380818F7DC7
:1024800080838AEB90E00E947D0285E890E00E94C4
:102490007D0282E890E00E947D0286E790E00E9443
:1024A0007D0283E790E00E947D028AE690E00E9430
:1024B0007D0288E690E00E947D0264E571E080E4A0
:1024C00093E00E94150D8091120281112AC0109292
:1024D000FA011092F90188EE93E0A0E0B0E0809359
:1024E000FB019093FC01A093FD01B093FE0188E2F3
:1024F00091E09093F8018093F70182E591E0909349
:1025000006028093050210920702109208021092B0
:10251000090210920A0284E080930F0281E0809306
:10252000120284EB91E09093B3018093B201809109
:10253000B1018111C3C060E372E080E090E00E94CD
:102540005201CFB6F89408E011E0BCE1EB2EB1E007
:10255000FB2E8091AF0181113BC0F8018491F701FE
:102560009491E82FF0E0EE0FFF1FEC50FF4FA59184
:10257000B4918C919823D1F4E0EEF0E08491F701CE
:10258000B490F801D490DD2089F081110E94D3002D
:10259000ED2DF0E0EE0FFF1FE651FF4FA591B49136
:1025A0008FB7F8949C91B92ABC928FBF61E08AE002
:1025B0000E94FC008CB580618CBD8CB580648CBDA4
:1025C00061E08DE00E94FC0061E08BE00E94FC0075
:1025D0008091AF018F5F8093AF01CFBEF80104916E
:1025E000E02FF0E0EE0FFF1FE651FF4F8591949131
:1025F0009093AE018093AD01F701E490E092AC01BD
:1026000061E08AE00E94FC000E94D20280E591E035
:102610000E94BE0084E380933F0380E80E949E03F3
:102620000E94A005882309F484C188E00E949E03CB
:102630000E948D05883009F07CC180E10E949E03D4
:102640000E948D05803109F074C180E00E949E03D4
:102650000E948D05182F81116CC141E050E0BE0130
:102660006F5F7F4F8FE190E00E948B048981833000
:1026700009F05FC180E48093B00142E06EE170E058
:10268000812F0E94E50342E06FE170E0812F0E94FC
:10269000E5031F5F143089F740E06EE170E0812FA1
:1026A0000E94E50340E06FE170E0812F0E94E503A6
:1026B0001F5F183089F781E08093B10180E591E0D8
:1026C0000E94BE0046E050E060E071E089E090E0EA
:1026D0000E94EE0282E591E09A8389831B821C822C
:1026E0001D821E8244E050E0BE016D5F7F4F8FE08F
:1026F00090E00E94EE020091B2011091B301D80166
:1027000092961D921D921D921C929597F80116A209
:1027100017A210A611A69A961D921D921D921C92A8
:102720009D9780E69AEEA0E0B0E086AB97ABA0AFB5
:10273000B1AF80EA9FE0A0E0B0E082AF93AFA4AF7A
:10274000B5AF3E9684E1DF011D928A95E9F786E0F8
:10275000E0E0F1E0D801189601900D928A95E1F73A
:10276000F801EE5BFF4FFA87E98710820E9410178D
:102770002FEC37E040E050E00E946817DC01CB010D
:102780000196A11DB11DF80184839583A683B783AB
:1027900080839183A283B3835801F3E4AF0EB11C0D
:1027A000C5010E944F0564E470E0C5010E9429093B
:1027B000882309F427C10E9484012B013C0148EEC3
:1027C000C42E43E0D42EE12CF12C52E0252E912C86
:1027D000812CA985BA858C918330B9F18111E5C12D
:1027E000F80184819581A681B7810196A11DB11D53
:1027F00084839583A683B7830E9484016419750935
:1028000086099709A70196010E949A17A90161E01C
:10281000C8010E946C0F81E0A985BA858C93F1E014
:102820008F169104B1F20E9484016419750986091A
:102830009709D801D6962D913D914D915C91D997EC
:10284000261737074807590710F6C5010E944F059C
:10285000F80184819581A681B7810196A11DB11DE2
:1028600084839583A683B7830E948401F801FE9632
:1028700060837183828393838A94892809F0C2C01C
:1028800080E591E00E94BE000091B2011091B30179
:10289000B801625F7F4FCE0101960E94E40944E0D7
:1028A00050E0BE016D5F7F4F8FE090E00E94EE022E
:1028B000B8016A5E7F4FCE0101960E94E40944E0B0
:1028C00050E0BE016D5F7F4F81E090E00E94EE021C
:1028D000B8016E5E7F4FCE0101960E94E40944E08C
:1028E00050E0BE016D5F7F4F85E090E00E94EE02F8
:1028F000B801625E7F4FCE0101960E94E4098B8190
:102900009C81AD81BE818093FD039093FE03A093D3
:10291000FF03B09300040E942D017F738091060194
:10292000909107016827792770930701609306014A
:1029300069C087E380933F0380E80E949E030E9462
:10294000A005882329F188E00E949E030E948D053E
:102950008830F1F480E10E949E030E948D05182FBB
:102960008031B1F480E00E949E030E948D058111A8
:102970000FC041E050E0BE016F5F7F4F89E390E000
:102980000E948B048981843019F41093B00193CE96
:1029900083E380933F0380E80E949E030E94A0058A
:1029A000882371F180E10E949E030E948D05803191
:1029B00039F582E10E949E030E948D05823101F566
:1029C00080E00E949E030E948D05811119C084E061
:1029D0008093B00115E5188741E050E0BE01685FC3
:1029E0007F4F8BE190E00E94EE021F8341E050E0B8
:1029F000BE01695F7F4F8AE190E00E94EE025BCEEC
:102A000010923F0382E591E09A8389831B821C82A6
:102A10001D821E8280E591E00E94BE0044E050E0ED
:102A2000BE016D5F7F4F8FE090E00E948B0460E4F9
:102A300073E0CE0101960E94830D64E571E080E4AD
:102A400093E00E94150D69E475E283E194E00E9431
:102A50002909EEE5F1E0AAE1B2E080E791E02191F9
:102A60002D938E179F07D9F782E591E09A8389838A
:102A70008091300490913104A0913204B0913304DC
:102A80008B839C83AD83BE8349E455E2BE016F5FB7
:102A90007F4F83E194E00E941E0442E150E06AE12E
:102AA00072E083E194E00E94650883E194E00E9473
:102AB0005C0598ED692E90E0792E24E1A22E21E0AC
:102AC000B22E30E0832E31E0932E40E0C42E40E061
:102AD000D42E52E5E52E51E0F52E83E194E00E94DC
:102AE000F009181619060CF054C040E850E06AE9E5
:102AF00072E083E194E00E941C088C0161E771E0C0
:102B000080E493E00E94150DF801E656FD4F108217
:102B10008AE992E00E94700DF3018491F50114910D
:102B2000F4010491002309F40BC181110E94D30028
:102B3000E02FF0E0EE0FFF1FE453FF4FA591B4919B
:102B40008C91182309F4FCC0FA82E9828091300448
:102B500090913104A0913204B09133048B839C8313
:102B6000AD83BE8349E455E2BE016F5F7F4F83E1D1
:102B700094E00E941E046CE771E083E194E00E94FF
:102B8000150D83E194E00E945C0585E891E00E94C8
:102B9000700DC114D10409F4A0CF0E94FA0188235A
:102BA00009F49BCF0E94000098CF8430F9F4F8011B
:102BB00084819581A681B7810196A11DB11D848371
:102BC0009583A683B7830E948401641975098609D9
:102BD0009709A70196010E949A17A90163E0C8010D
:102BE0000E946C0FA985BA852C9219CE813059F5B7
:102BF000F80142AD53AD64AD75AD9E012F5F3F4FFF
:102C0000C8010E94CD0D382EF2E08F1392C0898149
:102C10009A81AB81BC81F80184839583A683B783B5
:102C20000E9484016419750986099709A701960114
:102C30000E949A17A90163E0C8010E946C0FA98540
:102C4000BA853C92ECCD823009F0E9CDF80142AD75
:102C500053AD64AD75AD9E012F5F3F4FC8010E941B
:102C6000CD0D382EF5E08F135DC0E3E0A985BA8560
:102C7000EC93F80182A193A1A4A1B5A1892B8A2B81
:102C80008B2B41F484E893E0A0E0B0E082A393A30F
:102C9000A4A3B5A3F80186A197A1A0A5B1A5892BEE
:102CA0008A2B8B2B61F482A193A1A4A1B5A1B69527
:102CB000A7959795879586A397A3A0A7B1A7F80195
:102CC00082A593A5A4A5B5A5892B8A2B8B2BA9F446
:102CD00082A193A1A4A1B5A1AC01BD0123E0769589
:102CE0006795579547952A95D1F7841B950BA60BA9
:102CF000B70B82A793A7A4A7B5A7F80186A197A1B0
:102D0000A0A5B1A586A797A7A0ABB1AB82A593A5B7
:102D1000A4A5B5A582AB93ABA4ABB5AB8824839433
:102D2000912C7DCDF6E08F1304C0A985BA851C9245
:102D300076CDBFEF3B1273CDE985FA8510826FCD5A
:102D4000FA82E9828091300490913104A09132049A
:102D5000B09133048B839C83AD83BE8349E455E2F9
:102D6000BE016F5F7F4F83E194E00E941E0465E91E
:102D700071E083E194E00E94150D83E194E00E94EC
:102D80005C058DE991E003CF8F929F92AF92BF9245
:102D9000CF92DF92EF92FF92CF93DF93EC016881A5
:102DA00079818A819B81611571058105910521F4E5
:102DB00064E279ED8BE597E02DE133EF41E050E0FF
:102DC0000E94681749015A019B01AC01A7EAB1E4CE
:102DD0000E9487176B017C01ACEEB4EFA501940152
:102DE0000E949517C60ED71EE81EF91EF7FE06C0F4
:102DF00081E0C81AD108E10880E8F80AC882D982BF
:102E0000EA82FB82C701B6019F77DF91CF91FF90E5
:102E1000EF90DF90CF90BF90AF909F908F900895EC
:102E20008F929F92AF92BF92CF92DF92EF92FF92DA
:102E3000609108017091090180910A0190910B0144
:102E4000611571058105910521F464E279ED8BE549
:102E500097E02DE133EF41E050E00E94681749010F
:102E60005A019B01AC01A7EAB1E40E9487176B01EC
:102E70007C01ACEEB4EFA50194010E949517C60E3B
:102E8000D71EE81EF91EF7FE06C081E0C81AD10859
:102E9000E10880E8F80AC0920801D0920901E092A6
:102EA0000A01F0920B01C701B6019F77FF90EF90E6
:102EB000DF90CF90BF90AF909F908F9008956093D8
:102EC00008017093090180930A0190930B01089502
:102ED000052E97FB1EF400940E947F1757FD07D024
:102EE0000E949A1707FC03D04EF40C947F1750955C
:102EF0004095309521953F4F4F4F5F4F08959095E6
:102F00008095709561957F4F8F4F9F4F08950E94D8
:102F1000BC17A59F900DB49F900DA49F800D911D8F
:102F200011240895B7FF0C9487170E948717821BFE
:102F3000930B0895A1E21A2EAA1BBB1BFD010DC025
:102F4000AA1FBB1FEE1FFF1FA217B307E407F50759
:102F500020F0A21BB30BE40BF50B661F771F881F35
:102F6000991F1A9469F760957095809590959B01CB
:102F7000AC01BD01CF010895A29FB001B39FC00174
:102F8000A39F700D811D1124911DB29F700D811D95
:102F90001124911D08956927962769277827872787
:102FA00078270895EE0FFF1F0590F491E02D099406
:102FB000FB01DC0104C08D910190801921F4415086
:102FC0005040C8F7881B990B0895DC0101C06D9330
:102FD00041505040E0F70895FB01DC0101900D9253
:0A2FE0000020E1F70895F894FFCFF8
:102FEA0001FFAA1234FF00C00100000001005E00C8
:102FFA0000000000000030029001BD019802EE01BD
:10300A00CC01E00100000000030465088804020402
:10301A0019043B08B6052909D6064F051E046D0A90
:10302A005C05F0091C08810471046D046904000040
:10303A000000830D0D0A0057495A6E657400484511
:10304A004C4C4F2053657276657231206865726503
:10305A000052656369657665643A200052454C45BD
:10306A004153454400427574746F6E2072656C65F5
:10307A006173656400505245535345440042757468
:0C308A00746F6E207072657373656400D3
:00000001FF
